{
  "_format": "hh-sol-artifact-1",
  "contractName": "VoterDemo",
  "sourceName": "contracts/VoterDemo.sol",
  "abi": [
    {
      "inputs": [
        {
          "internalType": "bytes32[]",
          "name": "_users",
          "type": "bytes32[]"
        },
        {
          "internalType": "bytes32[]",
          "name": "_proposals",
          "type": "bytes32[]"
        },
        {
          "internalType": "address",
          "name": "_verifier",
          "type": "address"
        }
      ],
      "stateMutability": "nonpayable",
      "type": "constructor"
    },
    {
      "anonymous": false,
      "inputs": [
        {
          "indexed": false,
          "internalType": "bytes32[3][]",
          "name": "",
          "type": "bytes32[3][]"
        }
      ],
      "name": "Leaves",
      "type": "event"
    },
    {
      "anonymous": false,
      "inputs": [
        {
          "indexed": false,
          "internalType": "uint256",
          "name": "nullifierHash",
          "type": "uint256"
        }
      ],
      "name": "NullifierHashAdded",
      "type": "event"
    },
    {
      "anonymous": false,
      "inputs": [
        {
          "indexed": true,
          "internalType": "address",
          "name": "previousOwner",
          "type": "address"
        },
        {
          "indexed": true,
          "internalType": "address",
          "name": "newOwner",
          "type": "address"
        }
      ],
      "name": "OwnershipTransferred",
      "type": "event"
    },
    {
      "inputs": [
        {
          "internalType": "bytes32[3]",
          "name": "_leaf",
          "type": "bytes32[3]"
        }
      ],
      "name": "addLeaf",
      "outputs": [],
      "stateMutability": "nonpayable",
      "type": "function"
    },
    {
      "inputs": [],
      "name": "emptyLeaves",
      "outputs": [],
      "stateMutability": "nonpayable",
      "type": "function"
    },
    {
      "inputs": [],
      "name": "getLeaves",
      "outputs": [
        {
          "internalType": "bytes32[3][]",
          "name": "",
          "type": "bytes32[3][]"
        }
      ],
      "stateMutability": "view",
      "type": "function"
    },
    {
      "inputs": [],
      "name": "getLeavesLength",
      "outputs": [
        {
          "internalType": "uint256",
          "name": "",
          "type": "uint256"
        }
      ],
      "stateMutability": "view",
      "type": "function"
    },
    {
      "inputs": [
        {
          "internalType": "uint256",
          "name": "_group",
          "type": "uint256"
        }
      ],
      "name": "getProposalsAllExpensive",
      "outputs": [
        {
          "internalType": "bytes32[]",
          "name": "",
          "type": "bytes32[]"
        },
        {
          "internalType": "uint256[]",
          "name": "",
          "type": "uint256[]"
        }
      ],
      "stateMutability": "view",
      "type": "function"
    },
    {
      "inputs": [
        {
          "internalType": "uint256",
          "name": "_group",
          "type": "uint256"
        }
      ],
      "name": "getRatingAllExpensive",
      "outputs": [
        {
          "internalType": "bytes32[]",
          "name": "",
          "type": "bytes32[]"
        },
        {
          "internalType": "uint256[]",
          "name": "",
          "type": "uint256[]"
        }
      ],
      "stateMutability": "view",
      "type": "function"
    },
    {
      "inputs": [
        {
          "internalType": "uint256",
          "name": "_group",
          "type": "uint256"
        },
        {
          "internalType": "bytes32",
          "name": "_user",
          "type": "bytes32"
        }
      ],
      "name": "getRatingByUser",
      "outputs": [
        {
          "internalType": "uint256",
          "name": "",
          "type": "uint256"
        }
      ],
      "stateMutability": "view",
      "type": "function"
    },
    {
      "inputs": [
        {
          "internalType": "uint256",
          "name": "_group",
          "type": "uint256"
        },
        {
          "internalType": "uint256",
          "name": "_i",
          "type": "uint256"
        }
      ],
      "name": "getRatingbyId",
      "outputs": [
        {
          "internalType": "uint256",
          "name": "",
          "type": "uint256"
        }
      ],
      "stateMutability": "view",
      "type": "function"
    },
    {
      "inputs": [
        {
          "internalType": "uint256",
          "name": "_group",
          "type": "uint256"
        }
      ],
      "name": "getRoot",
      "outputs": [
        {
          "internalType": "uint256",
          "name": "",
          "type": "uint256"
        }
      ],
      "stateMutability": "view",
      "type": "function"
    },
    {
      "inputs": [],
      "name": "getUsersArr",
      "outputs": [
        {
          "internalType": "bytes32[]",
          "name": "",
          "type": "bytes32[]"
        }
      ],
      "stateMutability": "view",
      "type": "function"
    },
    {
      "inputs": [],
      "name": "getUsersArrLength",
      "outputs": [
        {
          "internalType": "uint256",
          "name": "",
          "type": "uint256"
        }
      ],
      "stateMutability": "view",
      "type": "function"
    },
    {
      "inputs": [],
      "name": "owner",
      "outputs": [
        {
          "internalType": "address",
          "name": "",
          "type": "address"
        }
      ],
      "stateMutability": "view",
      "type": "function"
    },
    {
      "inputs": [],
      "name": "renounceOwnership",
      "outputs": [],
      "stateMutability": "nonpayable",
      "type": "function"
    },
    {
      "inputs": [
        {
          "internalType": "uint256",
          "name": "_group",
          "type": "uint256"
        },
        {
          "internalType": "uint256",
          "name": "_root",
          "type": "uint256"
        }
      ],
      "name": "setRoot",
      "outputs": [],
      "stateMutability": "nonpayable",
      "type": "function"
    },
    {
      "inputs": [
        {
          "internalType": "address",
          "name": "newOwner",
          "type": "address"
        }
      ],
      "name": "transferOwnership",
      "outputs": [],
      "stateMutability": "nonpayable",
      "type": "function"
    },
    {
      "inputs": [],
      "name": "verifier",
      "outputs": [
        {
          "internalType": "contract IVerifier",
          "name": "",
          "type": "address"
        }
      ],
      "stateMutability": "view",
      "type": "function"
    },
    {
      "inputs": [
        {
          "internalType": "uint256",
          "name": "_group",
          "type": "uint256"
        },
        {
          "internalType": "uint256",
          "name": "_commitment",
          "type": "uint256"
        },
        {
          "internalType": "bytes32",
          "name": "_user",
          "type": "bytes32"
        },
        {
          "internalType": "bytes32",
          "name": "_vote",
          "type": "bytes32"
        },
        {
          "internalType": "uint256",
          "name": "_root",
          "type": "uint256"
        },
        {
          "internalType": "uint256",
          "name": "_nullifierHash",
          "type": "uint256"
        },
        {
          "internalType": "uint256[8]",
          "name": "_proof",
          "type": "uint256[8]"
        }
      ],
      "name": "vote",
      "outputs": [],
      "stateMutability": "nonpayable",
      "type": "function"
    },
    {
      "inputs": [
        {
          "internalType": "uint256",
          "name": "",
          "type": "uint256"
        }
      ],
      "name": "votersRoot",
      "outputs": [
        {
          "internalType": "uint256",
          "name": "",
          "type": "uint256"
        }
      ],
      "stateMutability": "view",
      "type": "function"
    }
  ],
  "bytecode": "0x60806040523480156200001157600080fd5b5060405162002d8b38038062002d8b833981810160405281019062000037919062000411565b620000576200004b6200020260201b60201c565b6200020a60201b60201c565b82600890805190602001906200006f929190620002d0565b5060005b6008805490508110156200010657600060076000808152602001908152602001600020600060088481548110620000d3577f4e487b7100000000000000000000000000000000000000000000000000000000600052603260045260246000fd5b90600052602060002001548152602001908152602001600020819055508080620000fd906200056f565b91505062000073565b5081600990805190602001906200011f929190620002d0565b5060005b600980549050811015620001b7576000600760006001815260200190815260200160002060006009848154811062000184577f4e487b7100000000000000000000000000000000000000000000000000000000600052603260045260246000fd5b90600052602060002001548152602001908152602001600020819055508080620001ae906200056f565b91505062000123565b5080600460006101000a81548173ffffffffffffffffffffffffffffffffffffffff021916908373ffffffffffffffffffffffffffffffffffffffff16021790555050505062000660565b600033905090565b6000600160009054906101000a900473ffffffffffffffffffffffffffffffffffffffff16905081600160006101000a81548173ffffffffffffffffffffffffffffffffffffffff021916908373ffffffffffffffffffffffffffffffffffffffff1602179055508173ffffffffffffffffffffffffffffffffffffffff168173ffffffffffffffffffffffffffffffffffffffff167f8be0079c531659141344cd1fd0a4f28419497f9722a3daafe3b4186f6b6457e060405160405180910390a35050565b8280548282559060005260206000209081019282156200030f579160200282015b828111156200030e578251825591602001919060010190620002f1565b5b5090506200031e919062000322565b5090565b5b808211156200033d57600081600090555060010162000323565b5090565b6000620003586200035284620004c2565b62000499565b905080838252602082019050828560208602820111156200037857600080fd5b60005b85811015620003ac5781620003918882620003fa565b8452602084019350602083019250506001810190506200037b565b5050509392505050565b600081519050620003c7816200062c565b92915050565b600082601f830112620003df57600080fd5b8151620003f184826020860162000341565b91505092915050565b6000815190506200040b8162000646565b92915050565b6000806000606084860312156200042757600080fd5b600084015167ffffffffffffffff8111156200044257600080fd5b6200045086828701620003cd565b935050602084015167ffffffffffffffff8111156200046e57600080fd5b6200047c86828701620003cd565b92505060406200048f86828701620003b6565b9150509250925092565b6000620004a5620004b8565b9050620004b3828262000539565b919050565b6000604051905090565b600067ffffffffffffffff821115620004e057620004df620005ec565b5b602082029050602081019050919050565b6000620004fe826200050f565b9050919050565b6000819050919050565b600073ffffffffffffffffffffffffffffffffffffffff82169050919050565b6000819050919050565b62000544826200061b565b810181811067ffffffffffffffff82111715620005665762000565620005ec565b5b80604052505050565b60006200057c826200052f565b91507fffffffffffffffffffffffffffffffffffffffffffffffffffffffffffffffff821415620005b257620005b1620005bd565b5b600182019050919050565b7f4e487b7100000000000000000000000000000000000000000000000000000000600052601160045260246000fd5b7f4e487b7100000000000000000000000000000000000000000000000000000000600052604160045260246000fd5b6000601f19601f8301169050919050565b6200063781620004f1565b81146200064357600080fd5b50565b620006518162000505565b81146200065d57600080fd5b50565b61271b80620006706000396000f3fe608060405234801561001057600080fd5b50600436106101165760003560e01c80639b24b3b0116100a2578063be861e6711610071578063be861e67146102be578063e0b98d2f146102ef578063e63f9f5a1461030b578063f2fde38b1461033b578063fc52029c1461035757610116565b80639b24b3b0146102365780639ecfbb7d146102665780639f97a5c114610270578063ad2b3037146102a057610116565b8063715018a6116100e9578063715018a6146101a3578063735b8f03146101ad5780637aa14932146101c9578063843a97d1146101e75780638da5cb5b1461021857610116565b80631e859c451461011b5780632b7ac3f31461013757806340b0321e1461015557806356699adf14610185575b600080fd5b6101356004803603810190610130919061190d565b610375565b005b61013f610435565b60405161014c9190612036565b60405180910390f35b61016f600480360381019061016a919061190d565b61045b565b60405161017c9190612111565b60405180910390f35b61018d6104ce565b60405161019a9190611f96565b60405180910390f35b6101ab610526565b005b6101c760048036038101906101c29190611949565b6105ae565b005b6101d161080b565b6040516101de9190612111565b60405180910390f35b61020160048036038101906101fc91906118a8565b610818565b60405161020f929190611fb8565b60405180910390f35b610220610a70565b60405161022d9190611f37565b60405180910390f35b610250600480360381019061024b91906118a8565b610a9a565b60405161025d9190612111565b60405180910390f35b61026e610adf565b005b61028a600480360381019061028591906118a8565b610bee565b6040516102979190612111565b60405180910390f35b6102a8610c09565b6040516102b59190611f52565b60405180910390f35b6102d860048036038101906102d391906118a8565b610c99565b6040516102e6929190611fb8565b60405180910390f35b6103096004803603810190610304919061187f565b610ef1565b005b610325600480360381019061032091906118d1565b610f67565b6040516103329190612111565b60405180910390f35b61035560048036038101906103509190611856565b610f96565b005b61035f61108e565b60405161036c9190612111565b60405180910390f35b61037d61109b565b73ffffffffffffffffffffffffffffffffffffffff1661039b610a70565b73ffffffffffffffffffffffffffffffffffffffff16146103f1576040517f08c379a00000000000000000000000000000000000000000000000000000000081526004016103e8906120b1565b60405180910390fd5b806002836002811061042c577f4e487b7100000000000000000000000000000000000000000000000000000000600052603260045260246000fd5b01819055505050565b600460009054906101000a900473ffffffffffffffffffffffffffffffffffffffff1681565b6000600760008481526020019081526020016000206000600884815481106104ac577f4e487b7100000000000000000000000000000000000000000000000000000000600052603260045260246000fd5b9060005260206000200154815260200190815260200160002054905092915050565b6060600880548060200260200160405190810160405280929190818152602001828054801561051c57602002820191906000526020600020905b815481526020019060010190808311610508575b5050505050905090565b61052e61109b565b73ffffffffffffffffffffffffffffffffffffffff1661054c610a70565b73ffffffffffffffffffffffffffffffffffffffff16146105a2576040517f08c379a0000000000000000000000000000000000000000000000000000000008152600401610599906120b1565b60405180910390fd5b6105ac60006110a3565b565b6105b661109b565b73ffffffffffffffffffffffffffffffffffffffff166105d4610a70565b73ffffffffffffffffffffffffffffffffffffffff161461062a576040517f08c379a0000000000000000000000000000000000000000000000000000000008152600401610621906120b1565b60405180910390fd5b6006600083815260200190815260200160002060009054906101000a900460ff161561068b576040517f08c379a0000000000000000000000000000000000000000000000000000000008152600401610682906120d1565b60405180910390fd5b6005600087815260200190815260200160002060009054906101000a900460ff16156106ec576040517f08c379a00000000000000000000000000000000000000000000000000000000081526004016106e390612091565b60405180910390fd5b8260028860028110610727577f4e487b7100000000000000000000000000000000000000000000000000000000600052603260045260246000fd5b01819055506107d2846002896002811061076a577f4e487b7100000000000000000000000000000000000000000000000000000000600052603260045260246000fd5b01548460028b600281106107a7577f4e487b7100000000000000000000000000000000000000000000000000000000600052603260045260246000fd5b015485600460009054906101000a900473ffffffffffffffffffffffffffffffffffffffff16611169565b60008714156107e5576107e4826114c2565b5b60018714156107f8576107f786611552565b5b61080287866115e2565b50505050505050565b6000600a80549050905090565b6060806000600980549050905060008167ffffffffffffffff811115610867577f4e487b7100000000000000000000000000000000000000000000000000000000600052604160045260246000fd5b6040519080825280602002602001820160405280156108955781602001602082028036833780820191505090505b50905060008267ffffffffffffffff8111156108da577f4e487b7100000000000000000000000000000000000000000000000000000000600052604160045260246000fd5b6040519080825280602002602001820160405280156109085781602001602082028036833780820191505090505b50905060005b83811015610a615760098181548110610950577f4e487b7100000000000000000000000000000000000000000000000000000000600052603260045260246000fd5b9060005260206000200154838281518110610994577f4e487b7100000000000000000000000000000000000000000000000000000000600052603260045260246000fd5b602002602001018181525050600760008881526020019081526020016000206000600983815481106109ef577f4e487b7100000000000000000000000000000000000000000000000000000000600052603260045260246000fd5b9060005260206000200154815260200190815260200160002054828281518110610a42577f4e487b7100000000000000000000000000000000000000000000000000000000600052603260045260246000fd5b6020026020010181815250508080610a5990612456565b91505061090e565b50818194509450505050915091565b6000600160009054906101000a900473ffffffffffffffffffffffffffffffffffffffff16905090565b600060028260028110610ad6577f4e487b7100000000000000000000000000000000000000000000000000000000600052603260045260246000fd5b01549050919050565b610ae761109b565b73ffffffffffffffffffffffffffffffffffffffff16610b05610a70565b73ffffffffffffffffffffffffffffffffffffffff1614610b5b576040517f08c379a0000000000000000000000000000000000000000000000000000000008152600401610b52906120b1565b60405180910390fd5b600067ffffffffffffffff811115610b9c577f4e487b7100000000000000000000000000000000000000000000000000000000600052604160045260246000fd5b604051908082528060200260200182016040528015610bd557816020015b610bc2611659565b815260200190600190039081610bba5790505b50600a9080519060200190610beb92919061167b565b50565b60028160028110610bfe57600080fd5b016000915090505481565b6060600a805480602002602001604051908101604052809291908181526020016000905b82821015610c905783829060005260206000209060030201600380602002604051908101604052809291908260038015610c7c576020028201915b815481526020019060010190808311610c68575b505050505081526020019060010190610c2d565b50505050905090565b6060806000600880549050905060008167ffffffffffffffff811115610ce8577f4e487b7100000000000000000000000000000000000000000000000000000000600052604160045260246000fd5b604051908082528060200260200182016040528015610d165781602001602082028036833780820191505090505b50905060008267ffffffffffffffff811115610d5b577f4e487b7100000000000000000000000000000000000000000000000000000000600052604160045260246000fd5b604051908082528060200260200182016040528015610d895781602001602082028036833780820191505090505b50905060005b83811015610ee25760088181548110610dd1577f4e487b7100000000000000000000000000000000000000000000000000000000600052603260045260246000fd5b9060005260206000200154838281518110610e15577f4e487b7100000000000000000000000000000000000000000000000000000000600052603260045260246000fd5b60200260200101818152505060076000888152602001908152602001600020600060088381548110610e70577f4e487b7100000000000000000000000000000000000000000000000000000000600052603260045260246000fd5b9060005260206000200154815260200190815260200160002054828281518110610ec3577f4e487b7100000000000000000000000000000000000000000000000000000000600052603260045260246000fd5b6020026020010181815250508080610eda90612456565b915050610d8f565b50818194509450505050915091565b600a819080600181540180825580915050600190039060005260206000209060030201600090919091909150906003610f2b9291906116d9565b507f068d87a5006282760a7ea71334ca0ea7f8bdefc519c16974247bf279d590e495600a604051610f5c9190611f74565b60405180910390a150565b600060076000848152602001908152602001600020600083815260200190815260200160002054905092915050565b610f9e61109b565b73ffffffffffffffffffffffffffffffffffffffff16610fbc610a70565b73ffffffffffffffffffffffffffffffffffffffff1614611012576040517f08c379a0000000000000000000000000000000000000000000000000000000008152600401611009906120b1565b60405180910390fd5b600073ffffffffffffffffffffffffffffffffffffffff168173ffffffffffffffffffffffffffffffffffffffff161415611082576040517f08c379a000000000000000000000000000000000000000000000000000000000815260040161107990612071565b60405180910390fd5b61108b816110a3565b50565b6000600880549050905090565b600033905090565b6000600160009054906101000a900473ffffffffffffffffffffffffffffffffffffffff16905081600160006101000a81548173ffffffffffffffffffffffffffffffffffffffff021916908373ffffffffffffffffffffffffffffffffffffffff1602179055508173ffffffffffffffffffffffffffffffffffffffff168173ffffffffffffffffffffffffffffffffffffffff167f8be0079c531659141344cd1fd0a4f28419497f9722a3daafe3b4186f6b6457e060405160405180910390a35050565b60008085815260200190815260200160002060009054906101000a900460ff16156111c9576040517f08c379a00000000000000000000000000000000000000000000000000000000081526004016111c090612051565b60405180910390fd5b60006111d487611622565b90508173ffffffffffffffffffffffffffffffffffffffff16635fe8c13b604051806040016040528086600060088110611237577f4e487b7100000000000000000000000000000000000000000000000000000000600052603260045260246000fd5b602002013581526020018660016008811061127b577f4e487b7100000000000000000000000000000000000000000000000000000000600052603260045260246000fd5b602002013581525060405180604001604052806040518060400160405280896002600881106112d3577f4e487b7100000000000000000000000000000000000000000000000000000000600052603260045260246000fd5b6020020135815260200189600360088110611317577f4e487b7100000000000000000000000000000000000000000000000000000000600052603260045260246000fd5b60200201358152508152602001604051806040016040528089600460088110611369577f4e487b7100000000000000000000000000000000000000000000000000000000600052603260045260246000fd5b60200201358152602001896005600881106113ad577f4e487b7100000000000000000000000000000000000000000000000000000000600052603260045260246000fd5b60200201358152508152506040518060400160405280886006600881106113fd577f4e487b7100000000000000000000000000000000000000000000000000000000600052603260045260246000fd5b6020020135815260200188600760088110611441577f4e487b7100000000000000000000000000000000000000000000000000000000600052603260045260246000fd5b602002013581525060405180608001604052808c81526020018b81526020018781526020018a8152506040518563ffffffff1660e01b81526004016114899493929190611fef565b60006040518083038186803b1580156114a157600080fd5b505afa1580156114b5573d6000803e3d6000fd5b5050505050505050505050565b6006600082815260200190815260200160002060009054906101000a900460ff1615611523576040517f08c379a000000000000000000000000000000000000000000000000000000000815260040161151a906120f1565b60405180910390fd5b60016006600083815260200190815260200160002060006101000a81548160ff02191690831515021790555050565b6005600082815260200190815260200160002060009054906101000a900460ff16156115b3576040517f08c379a00000000000000000000000000000000000000000000000000000000081526004016115aa906120f1565b60405180910390fd5b60016005600083815260200190815260200160002060006101000a81548160ff02191690831515021790555050565b600160076000848152602001908152602001600020600083815260200190815260200160002060008282546116179190612341565b925050819055505050565b60006008826040516020016116379190611f1c565b6040516020818303038152906040528051906020012060001c901c9050919050565b6040518060600160405280600390602082028036833780820191505090505090565b8280548282559060005260206000209060030281019282156116c8579160200282015b828111156116c7578251829060036116b79291906116d9565b509160200191906003019061169e565b5b5090506116d59190611719565b5090565b8260038101928215611708579160200282015b828111156117075782518255916020019190600101906116ec565b5b509050611715919061173d565b5090565b5b808211156117395760008181611730919061175a565b5060030161171a565b5090565b5b8082111561175657600081600090555060010161173e565b5090565b50600081556001016000815560010160009055565b600061178261177d84612151565b61212c565b9050808285602086028201111561179857600080fd5b60005b858110156117c857816117ae888261182c565b84526020840193506020830192505060018101905061179b565b5050509392505050565b6000813590506117e1816126a0565b92915050565b600082601f8301126117f857600080fd5b600361180584828561176f565b91505092915050565b60008190508260206008028201111561182657600080fd5b92915050565b60008135905061183b816126b7565b92915050565b600081359050611850816126ce565b92915050565b60006020828403121561186857600080fd5b6000611876848285016117d2565b91505092915050565b60006060828403121561189157600080fd5b600061189f848285016117e7565b91505092915050565b6000602082840312156118ba57600080fd5b60006118c884828501611841565b91505092915050565b600080604083850312156118e457600080fd5b60006118f285828601611841565b92505060206119038582860161182c565b9150509250929050565b6000806040838503121561192057600080fd5b600061192e85828601611841565b925050602061193f85828601611841565b9150509250929050565b60008060008060008060006101c0888a03121561196557600080fd5b60006119738a828b01611841565b97505060206119848a828b01611841565b96505060406119958a828b0161182c565b95505060606119a68a828b0161182c565b94505060806119b78a828b01611841565b93505060a06119c88a828b01611841565b92505060c06119d98a828b0161180e565b91505092959891949750929550565b60006119f48383611b81565b60608301905092915050565b6000611a0c8383611bd8565b60608301905092915050565b6000611a248383611c94565b60408301905092915050565b6000611a3c8383611df7565b60208301905092915050565b6000611a548383611efe565b60208301905092915050565b611a69816123a1565b82525050565b6000611a7a826121ee565b611a8481856122c6565b9350611a8f83612177565b8060005b83811015611ac0578151611aa788826119e8565b9750611ab283612251565b925050600181019050611a93565b5085935050505092915050565b6000611ad8826121f9565b611ae281856122c6565b9350611aed83612187565b8060005b83811015611b1d5781611b048882611a00565b9750611b0f8361225e565b925050600181019050611af1565b5085935050505092915050565b611b3381612204565b611b3d81846122d7565b9250611b488261219c565b8060005b83811015611b79578151611b608782611a18565b9650611b6b8361226b565b925050600181019050611b4c565b505050505050565b611b8a8161220f565b611b9481846122e2565b9250611b9f826121a6565b8060005b83811015611bd0578151611bb78782611a30565b9650611bc283612278565b925050600181019050611ba3565b505050505050565b611be18161221a565b611beb81846122e2565b9250611bf6826121b0565b8060005b83811015611c2e57611c0b82612507565b611c158782611a30565b9650611c2083612285565b925050600181019050611bfa565b505050505050565b6000611c4182612225565b611c4b81856122ed565b9350611c56836121ba565b8060005b83811015611c87578151611c6e8882611a30565b9750611c7983612292565b925050600181019050611c5a565b5085935050505092915050565b611c9d81612230565b611ca781846122fe565b9250611cb2826121ca565b8060005b83811015611ce3578151611cca8782611a48565b9650611cd58361229f565b925050600181019050611cb6565b505050505050565b611cf481612230565b611cfe8184612309565b9250611d09826121ca565b8060005b83811015611d3a578151611d218782611a48565b9650611d2c8361229f565b925050600181019050611d0d565b505050505050565b611d4b8161223b565b611d558184612314565b9250611d60826121d4565b8060005b83811015611d91578151611d788782611a48565b9650611d83836122ac565b925050600181019050611d64565b505050505050565b6000611da482612246565b611dae818561231f565b9350611db9836121de565b8060005b83811015611dea578151611dd18882611a48565b9750611ddc836122b9565b925050600181019050611dbd565b5085935050505092915050565b611e00816123b3565b82525050565b611e17611e12826123b3565b61249f565b82525050565b611e26816123e7565b82525050565b6000611e39603683612330565b9150611e4482612538565b604082019050919050565b6000611e5c602683612330565b9150611e6782612587565b604082019050919050565b6000611e7f602983612330565b9150611e8a826125d6565b604082019050919050565b6000611ea2602083612330565b9150611ead82612625565b602082019050919050565b6000611ec5601583612330565b9150611ed08261264e565b602082019050919050565b6000611ee8600d83612330565b9150611ef382612677565b602082019050919050565b611f07816123dd565b82525050565b611f16816123dd565b82525050565b6000611f288284611e06565b60208201915081905092915050565b6000602082019050611f4c6000830184611a60565b92915050565b60006020820190508181036000830152611f6c8184611a6f565b905092915050565b60006020820190508181036000830152611f8e8184611acd565b905092915050565b60006020820190508181036000830152611fb08184611c36565b905092915050565b60006040820190508181036000830152611fd28185611c36565b90508181036020830152611fe68184611d99565b90509392505050565b6000610180820190506120056000830187611ceb565b6120126040830186611b2a565b61201f60c0830185611ceb565b61202d610100830184611d42565b95945050505050565b600060208201905061204b6000830184611e1d565b92915050565b6000602082019050818103600083015261206a81611e2c565b9050919050565b6000602082019050818103600083015261208a81611e4f565b9050919050565b600060208201905081810360008301526120aa81611e72565b9050919050565b600060208201905081810360008301526120ca81611e95565b9050919050565b600060208201905081810360008301526120ea81611eb8565b9050919050565b6000602082019050818103600083015261210a81611edb565b9050919050565b60006020820190506121266000830184611f0d565b92915050565b6000612136612147565b90506121428282612425565b919050565b6000604051905090565b600067ffffffffffffffff82111561216c5761216b6124d8565b5b602082029050919050565b6000819050602082019050919050565b60008190508160005260206000209050919050565b6000819050919050565b6000819050919050565b6000819050919050565b6000819050602082019050919050565b6000819050919050565b6000819050919050565b6000819050602082019050919050565b600081519050919050565b600081549050919050565b600060029050919050565b600060039050919050565b600060039050919050565b600081519050919050565b600060029050919050565b600060049050919050565b600081519050919050565b6000602082019050919050565b6000600382019050919050565b6000602082019050919050565b6000602082019050919050565b6000600182019050919050565b6000602082019050919050565b6000602082019050919050565b6000602082019050919050565b6000602082019050919050565b600082825260208201905092915050565b600081905092915050565b600081905092915050565b600082825260208201905092915050565b600081905092915050565b600081905092915050565b600081905092915050565b600082825260208201905092915050565b600082825260208201905092915050565b600061234c826123dd565b9150612357836123dd565b9250827fffffffffffffffffffffffffffffffffffffffffffffffffffffffffffffffff0382111561238c5761238b6124a9565b5b828201905092915050565b6000819050919050565b60006123ac826123bd565b9050919050565b6000819050919050565b600073ffffffffffffffffffffffffffffffffffffffff82169050919050565b6000819050919050565b60006123f2826123f9565b9050919050565b6000612404826123bd565b9050919050565b600061241e6124198361252b565b612397565b9050919050565b61242e8261251a565b810181811067ffffffffffffffff8211171561244d5761244c6124d8565b5b80604052505050565b6000612461826123dd565b91507fffffffffffffffffffffffffffffffffffffffffffffffffffffffffffffffff821415612494576124936124a9565b5b600182019050919050565b6000819050919050565b7f4e487b7100000000000000000000000000000000000000000000000000000000600052601160045260246000fd5b7f4e487b7100000000000000000000000000000000000000000000000000000000600052604160045260246000fd5b6000612513825461240b565b9050919050565b6000601f19601f8301169050919050565b60008160001c9050919050565b7f53656d6170686f7265436f72653a20796f752063616e6e6f742075736520746860008201527f652073616d65206e756c6c696669657220747769636500000000000000000000602082015250565b7f4f776e61626c653a206e6577206f776e657220697320746865207a65726f206160008201527f6464726573730000000000000000000000000000000000000000000000000000602082015250565b7f596f752063616e6e6f7420766f746520666f72207468652073616d652070657260008201527f736f6e2074776963650000000000000000000000000000000000000000000000602082015250565b7f4f776e61626c653a2063616c6c6572206973206e6f7420746865206f776e6572600082015250565b7f596f752063616e6e6f7420766f74652074776963650000000000000000000000600082015250565b7f416c726561647920616464656400000000000000000000000000000000000000600082015250565b6126a9816123a1565b81146126b457600080fd5b50565b6126c0816123b3565b81146126cb57600080fd5b50565b6126d7816123dd565b81146126e257600080fd5b5056fea2646970667358221220919a5303fb1a75f5bc5f178fff7bbb899ec97b9a8ad1974d0d21abd499af443664736f6c63430008040033",
  "linkReferences": {},
  "deployedLinkReferences": {}
}